:020000041000EA
:1000000000000220090700109904001047070010A3
:10001000490700104B0700104D07001000000000BA
:10002000000000000000000000000000312200106D
:100030005107001000000000C1220010252300100D
:10004000590700105B0700105D0700105F070010E4
:1000500061070010630700106507001067070010B4
:10006000690700106B0700106D0700106F07001084
:100070007107001073070010750700107707001054
:10008000790700107B0700107D0700107F07001024
:1000900081070010830700108507001087070010F4
:1000A0009B0300108B070010910300108F070010B6
:1000B0009107001093070010950700109707001094
:1000C000990700109B0700109D0700109F07001064
:1000D000A1070010A3070010A5070010A707001034
:1000E000A9070010AB070010AD070010AF07001004
:1000F000B1070010B3070010B5070010B7070010D4
:10010000B9070010BB070010BD070010BF070010A3
:10011000C1070010C3070010C5070010C707001073
:10012000C9070010CB070010CD070010CF07001043
:10013000D1070010D3070010D5070010D707001013
:10014000D9070010DB070010DD070010DF070010E3
:10015000E1070010E3070010E5070010E7070010B3
:10016000E9070010EB070010ED070010EF07001083
:10017000F1070010F3070010F5070010F707001053
:10018000F9070010FB070010FD070010FF07001023
:1001900001080010030800100508001007080010EF
:1001A000090800100B0800100D0800100F080010BF
:1001B000110800101308001015080010170800108F
:1001C000190800101B0800101D0800101F0800105F
:1001D000210800102308001025080010270800102F
:1001E0000348044B834202D0034B03B118477047C6
:1001F0002C0700202C070020000000000548064BBB
:100200001B1AD90F01EBA301491002D0034B03B114
:10021000184770472C0700202C0700200000000022
:1002200010B5064C237843B9FFF7DAFF044B13B13E
:100230000448AFF300800123237010BD2C07002079
:10024000000000006C9C001008B5044B1BB1044971
:100250000448AFF30080BDE80840CFE7000000008D
:10026000300700206C9C00104FF0A00383F311882E
:10027000BFF36F8FBFF34F8FFEE74FF0A00383F301
:100280001188BFF36F8FBFF34F8FFEE770470000F9
:10029000034B0360034B0B6080231360704700BF68
:1002A000B00B0020B0090020034B0360034B0B6030
:1002B00080231360704700BF4809002048070020D2
:1002C00000B583B001F06EFC019008E00A4B0B48CA
:1002D00004F0BCFD41F2883101A801F0B1FD01F04C
:1002E00061FC0146064AA2FB00329209054B1B68DD
:1002F000002BEBD1044BEAE7349500104895001031
:10030000D34D6210000000204095001000B583B06E
:1003100000F054F81149124804F098FD114B196887
:10032000114804F093FD00230193022200924FF440
:1003300080720E490E4801F0B6FB012804D00D482A
:1003400004F0E6FB00BFFDE70B4804F0E1FB01F021
:10035000D9FB0A4804F0DCFB00BFFDE77C950010E8
:1003600084950010E07D0020AC950010C49500102D
:10037000C1020010D09500100096001014960010D5
:1003800008B50346014804F061FDFEE74096001001
:1003900008B5022000F08CFC08BD08B5002000F074
:1003A00087FC08BD08B502224FF4E131024B186802
:1003B00000F0CEFF08BD00BF0400002030B597B0AC
:1003C000002000F099FB012000F096FB402000F097
:1003D00093FBFFF7E7FF051E47DB2A4AD2F8C03040
:1003E00043F00F03C2F8C03000F0ECF800283FD112
:1003F00000F0CAF8054600283FD1234B4322DA60BB
:10040000224C0DF1400CA646BEE80F00ACE80F00F0
:100410009EE803008CE803000DAB04F1180207CA44
:1004200083E807000022194610A800F0FBF80DF140
:100430001C0C04F1240EBEE80F00ACE80F009EE88F
:1004400003008CE8030004AB04F13C0207CA83E814
:1004500007000DF1040C483494E807008CE807000D
:100460006246194607A800F017F9284617B030BDB4
:10047000B92207490748FFF783FFBE220449054810
:10048000FFF77EFF008000400044004040990010CC
:100490005C960010A096001000BF70474FF0FF3030
:1004A00070474FF0FF3070474FF0FF3070474FF00C
:1004B000FF3070472DE9F041D8B90C46904605460B
:1004C000074602E001340137013545450EDA0C4E8E
:1004D000304600F099FFC1B22170304600F098FF1D
:1004E00023780D2BEED10A23237001373846BDE85F
:1004F000F08102F003FD092303604FF0FF37F5E7B9
:100500000020044070B50138012813D80C46164667
:10051000002505E014F8011B0A4800F079FF0135B9
:10052000B5420DDA23780A2BF4D10D21054800F0ED
:100530006FFFEFE702F0E2FC092303604FF0FF36A4
:10054000304670BD0020044010B504460A4B1B68BD
:1005500083420AD9094B04EB440203EB820461682D
:1005600053F8220000F08EFB10BD392204490548E3
:10057000FFF706FFEEE700BF089900100C99001086
:10058000A8960010D896001038B50024254600E043
:1005900001340A4B1B68A3420ED92046FFF7D4FF53
:1005A00004EB4400064B03EB800000F0B9FB00288D
:1005B000EED06FF00705EBE7284638BD089900102C
:1005C0000C99001070B50024264600E00134124B4F
:1005D0001D68A5420BD904EB4400104B03EB8000CF
:1005E00000F09EFB0028F1D06FF00706EEE70C4B01
:1005F0001B680BB100230AE0284604F05DF8084BA5
:100600001860F7E7064A12680021D15401339D4271
:10061000F8D8304670BD00BF24990010289900100A
:100620001874002048B370B40E461446034601689F
:10063000134A11604169134A11600169124A11603D
:10064000124D043393E8070085E807006EB1104BA4
:1006500096E8070083E807005CB10E4B94E80700BA
:1006600083E80700002070BC7047094B00221A6025
:10067000F2E70020074B1860F5E74FF0FF307047B6
:100680004874002044740020407400201C74002032
:10069000347400202874002021B330B4034615467A
:1006A000084613B31968124A11605969114A11605A
:1006B0001969114A1160114C07C884E80700104CF1
:1006C000043393E8070084E807003DB10D4B95E83B
:1006D000070083E80700002030BC70470020094B6A
:1006E0001860F9E74FF0FF3070474FF0FF30F3E745
:1006F00078740020747400207074002064740020EA
:100700004C7400205874002047488546474880476D
:1007100080B94749474A484B9B1A03DD043BC858F8
:10072000D050FBDC4549464A00209142BCBF41F80D
:10073000040BFAE7434880474348804743488047D3
:10074000FFF7FEFFFEE7FEE7FEE7FEE7FEE7FEE758
:10075000FEE7FEE7FEE7FEE7FEE7FEE7FEE7FEE771
:10076000FEE7FEE7FEE7FEE7FEE7FEE7FEE7FEE761
:10077000FEE7FEE7FEE7FEE7FEE7FEE7FEE7FEE751
:10078000FEE7FEE7FEE7FEE7FEE7FEE7FEE7FEE741
:10079000FEE7FEE7FEE7FEE7FEE7FEE7FEE7FEE731
:1007A000FEE7FEE7FEE7FEE7FEE7FEE7FEE7FEE721
:1007B000FEE7FEE7FEE7FEE7FEE7FEE7FEE7FEE711
:1007C000FEE7FEE7FEE7FEE7FEE7FEE7FEE7FEE701
:1007D000FEE7FEE7FEE7FEE7FEE7FEE7FEE7FEE7F1
:1007E000FEE7FEE7FEE7FEE7FEE7FEE7FEE7FEE7E1
:1007F000FEE7FEE7FEE7FEE7FEE7FEE7FEE7FEE7D1
:10080000FEE7FEE7FEE7FEE7FEE7FEE7FEE7FEE7C0
:10081000FEE7FEE7FEE7FEE7FEE7FEE7FEE7FEE7B0
:10082000FEE7FEE7FEE7FEE70000022011090010E8
:10083000289D0010000000202C0700202C0700201D
:10084000E07D002019090010294800100D03001058
:1008500008B503460B4A126842B10A4A10680344BD
:10086000094A934206D8074A136008BD054A07495A
:100870001160F2E702F042FB0C2303604FF0FF30FF
:10088000F3E700BF7C74002000F00120E87D002029
:100890006FF0100070476FF0100070474FF080430A
:1008A0009B6803F46063B3F5206F11D008D8B3F5EB
:1008B000C06F10D0B3F5006F10D08BB9104A13E0A1
:1008C000B3F5406F0ED0B3F5606F17D10D4A0BE052
:1008D0004FF4E10208E047F2305205E00A4A03E033
:1008E000094A01E04FF400424FF080439B68C3F394
:1008F000821322FA03F3054A13607047024AF3E7B2
:1009000000879303C068780400E1F505E07D0020CE
:10091000002070477047000010B50B4C0B4BA360D4
:100920000B4800F0FCFBD4F8883043F47003C4F8A3
:100930008830BFF34F8FBFF36F8FFFF7AFFFFFF725
:10094000E9FFFFF73BFD10BD00ED00E000000010E7
:1009500000A0024038B54FF0E0239C691A6922F4E8
:10096000803218490A601B6913F0010F21D14FF042
:10097000E0236FF07F445C619C6105221A614FF0B7
:100980008075114B1968114A0023A0FB010108F082
:1009900059FCB0FBF5F30E4A136005FB13008442CB
:1009A0000CD8136801331360201A2844094B1860CF
:1009B00038BD4FF0E0235D690135E2E7241A054BAD
:1009C0001C60F5E784740020E07D002040420F00A9
:1009D000080000208874002008B50E4B19600E4BEB
:1009E0001B68002B10DC08B9002008BDFFF7B2FF20
:1009F000094B1B68002B0ADD4FF0E022136943F01E
:100A0000020313610020F0E76FF00500EDE700201E
:100A1000EBE700BF807400200800002008B5094BF8
:100A20001B682BB16FF00F009847064B00221A602D
:100A3000054B1A684FF0E0231A61044B4FF0FF3268
:100A40001A6008BD80740020847400200800002013
:100A500010B5154B1B68002B15DB134B1C68E4B954
:100A60004FF0E0239A69114B1B689A4218D8FFF7A0
:100A7000D5FF0F4B1B6823B1002098470C4B002279
:100A80001A60204610BD0A4B1B6823B1002098470E
:100A9000074B00221A600024F3E76FF00504F0E72B
:100AA0006FF00504EDE700BF080000208874002007
:100AB000807400203F2808D94038C0B20D49CB6867
:100AC000012282401343CB6070471F2809D9203888
:100AD000C0B24FF080418B6C0122824013438B6483
:100AE00070474FF080414B6A0122824013434B62B2
:100AF000704700BF000008403F2809D94038C0B205
:100B00000E49CB680122824023EA0203CB60704782
:100B10001F280AD92038C0B24FF080418B6C0122C7
:100B2000824023EA02038B6470474FF080414B6A96
:100B30000122824023EA02034B6270470000084012
:100B400010B5044600214FF47A70FFF745FF4FF0CF
:100B500080439B68234207D1FFF77AFF10F1060F0D
:100B6000F5D06FF0090002E0FFF758FF002010BD3C
:100B700008B507283AD8DFE800F01A393929040FF8
:100B80002E254FF08042936843F4002393604FF08A
:100B90000060FFF7D5FF08BD4FF08042936843F433
:100BA000801393604FF08050FFF7CAFFF3E74FF0D8
:100BB0008042936843F4802393604FF08060FFF796
:100BC000BFFFE8E70B4800F0ABF8E4E74FF0005058
:100BD000FFF7B6FFDFE74FF08042936843F400333E
:100BE00093604FF00070FFF7ABFFD4E76FF00200A7
:100BF000D1E700BFC49900103F280AD94038C0B2DD
:100C000001228240104B9A600F4B9B681A42FBD125
:100C100070471F280CD92038C0B2012282404FF003
:100C200080435A644FF080435B6C1A42FAD170479C
:100C3000012282404FF080435A604FF080435B684E
:100C40001A42FAD1704700BF0000084010B50446B0
:100C500010F0010F09D114F0020F0AD114F0040FA3
:100C60000BD1204600F062FD10BD0020FFF744FFCD
:100C7000F1E70120FFF740FFF0E74020FFF73CFFDE
:100C8000EFE7000008B5084B984202D000F092F957
:100C900008BD0648036A01F00102C90001F0100115
:100CA0000A4313430362F3E700060840006C004068
:100CB00008B500F05BFD08BD08B5044B984202D0B2
:100CC00000F07AF908BD024BD961FBE70006084045
:100CD0000068004008B5044B984202D000F06EF95D
:100CE00008BD024BD869FBE70006084000680040D9
:100CF00008B5064B984202D000F062F908BD09B170
:100D00000020FBE76FF01000F8E700BF0006084086
:100D100008B500F0B8F908BD08B500F06DFD08BDD4
:100D200070B504460568A04B9D4212D003F5805370
:100D30009D4239D003F5EE2303F580639D4235D003
:100D400003F500739D4202D04FF0FF3002E0032014
:100D500000E00020012303FA00F0FFF777FFFFF720
:100D6000DBFF012800F011816268A17A2846FFF7B5
:100D7000BFFF0646002840F0098122688B4B9A424B
:100D800016D06268217A284600F039F9002840F030
:100D90000581637A042B00F20381DFE813F0A900D8
:100DA000C400E500B400D5000120D3E70220D1E75C
:100DB000237A012B25D0022B3BD0002B40F0E8807A
:100DC0007B49086A63685A0002F002021B0103F0C3
:100DD0002003134320EA03030B628A686368C3F3AA
:100DE00040005B0003F00203034322EA03038B602D
:100DF000637A042B00F2CF80DFE803F032496149C7
:100E000061006B49086A63685A0002F002021B0124
:100E100003F02003134303430B628A686368C3F340
:100E200040005B0003F00203034322EA03038B60EC
:100E3000DEE75F49086A63685A0002F002021B019C
:100E400003F02003134303430B628A686368C3F310
:100E500040005B0003F00203034313438B60C7E7CA
:100E60005348016A63689A0002F004025B0103F0D0
:100E7000400313430B430362237A002B00F0868068
:100E80006268E17A2846FFF743FF06467EE048495C
:100E90000A6A636803F00100DB0003F010030343F8
:100EA00013430B62086A63689A0002F004025B0154
:100EB00003F04003134320EA03030B62DCE73C49E1
:100EC0000A6A636803F00100DB0003F010030343C8
:100ED00022EA03030B62086A63689A0002F00402C4
:100EE0005B0103F04003134320EA03030B62C3E7F3
:100EF0002B6E626823EA02032B666B6E626823EA3C
:100F000002036B66B8E72B6E626813432B666B6E49
:100F1000626823EA02036B66D5F8B830626813434F
:100F2000C5F8B830A8E72B6E626813432B666B6E6A
:100F3000626823EA02036B66D5F8B830626823EA78
:100F40000203C5F8B83097E72B6E626823EA020304
:100F50002B666B6E626813436B66D5F8B8306268B7
:100F60001343C5F8B83087E72B6E626823EA0203A3
:100F70002B666B6E626813436B66D5F8B830626897
:100F800023EA0203C5F8B83076E70026304670BD84
:100F90006FF01006FAE76FF01006F7E70646F5E780
:100FA0006FF00206F2E700BF008000400006084034
:100FB000006C0040C161704781647047006C7047ED
:100FC00070B505460C461646FFF7A6FE012814D05C
:100FD00024B1012C0AD06FF0020006E0D5F8C03031
:100FE00023EA0603C5F8C030002070BDD5F8C03034
:100FF0003343C5F8C0300020F7E70020F5E770B5AF
:1010000004460E461546FFF787FE012836D0236BAF
:101010002B4323636560052E32D8DFE806F0030B0F
:10102000131A2128656165602567E567C4F8885053
:10103000002024E0256165602567E567C4F88850D5
:1010400000201CE0C4F88850E5672567A5600020F3
:1010500015E0C4F88850E567E566A56000200EE05D
:10106000C4F88850A5672567A560002007E0C4F88C
:101070008850A567E566A560002000E0002070BDEF
:101080006FF00200FBE770B504460D461646FFF709
:1010900043FE012811D0032D34D8DFE805F00210FB
:1010A0001C28D4F8B03023EA0603C4F8B030D4F8D2
:1010B000B43023EA0603C4F8B430002070BDD4F87D
:1010C000B0303343C4F8B030D4F8B43023EA060368
:1010D000C4F8B430F1E7D4F8B03023EA0603C4F81A
:1010E000B030D4F8B4303343C4F8B430E5E7D4F8C2
:1010F000B0303343C4F8B030D4F8B4303343C4F81C
:10110000B430DAE7D4F8B03023EA0603C4F8B030DC
:10111000D4F8B43023EA0603C4F8B430CDE708B5F8
:1011200000F006F808BDD0F8000100F480307047E8
:1011300010B50446D0F8003123F00103C0F80031A7
:101140000123C0F800372046FFF7EDFF0028FAD052
:10115000D4F8003143F00103C4F800312046FFF712
:10116000E2FF0028FAD010BD08B5174B984210D006
:10117000164B984215D0164B98421AD0154B9842F0
:101180001FD14420FFF738FD4420FFF793FC0020D7
:1011900008BD0B20FFF730FD0920FFF78BFC002076
:1011A000F6E70C20FFF728FD0A20FFF783FC00205C
:1011B000EEE71C20FFF720FD2120FFF77BFC00203D
:1011C000E6E76FF00200E3E700200440003004404F
:1011D000004004400014084010B504460846244B63
:1011E0009C420BD003F580539C4207D003F58053FB
:1011F0009C4203D003F575339C422FD105236361D4
:10120000022A28D0042A12D05ABB1A4B196849085E
:101210000246204600F094F9002807DD236843F4D5
:1012200000432360236813F4002FFBD010BD124B42
:101230009C4219D1236843F400132360B0F5166F64
:1012400004D9002363614FF48031E1E70123636136
:101250004FF48031DCE74FF4E101D9E76FF0020091
:10126000E4E76FF00200E1E76FF00200DEE700BFA5
:1012700000200440E07D00200014084008B500F084
:101280006EF908BD08B500F07AF908BD08B500F0A0
:1012900088F908BD38B504460D46184B984212D05F
:1012A00003F5805398420ED003F5805398420AD03C
:1012B00003F5753398421BD1022910D0042912D0AE
:1012C0006FF002000AE02DB1022D14D10520FFF7C6
:1012D0004FFC18B92946204600F0ACF938BD05206E
:1012E000FFF746FCF5E70620FFF742FC0325F0E791
:1012F0006FF00200F2E76FF00200EFE70020044019
:1013000010B5044600F0E2F9104B9C4213D003F5EF
:1013100080539C420FD003F580539C420BD003F5C1
:1013200075339C4201D0FD200FE0022808D003282D
:1013300008D1042009E038B1022806D0F92004E0E1
:10134000022002E0F92000E0002010BD002004404F
:1013500070B504460E461546FFF706FF0346B8B9BA
:101360001D4B9C4216D01D4B9C421AD01C4B9C42DC
:101370001ED01C4B9C422CD11B48FFF7D1FC4420B3
:10138000FFF7BAFB29462046FFF784FF0346B0B1BA
:10139000184670BD1548FFF7C3FC0920FFF7ACFBEA
:1013A000F0E71348FFF7BCFC0A20FFF7A5FBE9E7CD
:1013B0001048FFF7B5FC2120FFF79EFBE2E720462F
:1013C000FFF79EFF02463146204600F049F80346EB
:1013D000DEE76FF00203DBE700200440003004404A
:1013E000004004400014084094990010B89900107F
:1013F000AC990010A099001008B500F06BF908BD79
:1014000008B500F070F908BD08B500F011F808BD86
:1014100008B500F018F808BD08B500F06EF908BD71
:1014200008B500F06EF908BD08B500F070F908BD08
:1014300010B504462046FFF7EFFF0028FAD02046FB
:10144000FFF7DAFF10BD38B504460D462046FFF71A
:10145000E7FF0028FAD029462046FFF7D1FF38BD24
:10146000F8B504460F461646314B984210D003F5A6
:10147000805398420CD003F58053984208D003F56E
:101480007533984204D086222A492B48FEF778FF0C
:1014900001212046FFF7C8FF054608B12846F8BDE0
:1014A00008212046FFF7EAFE05460028F6D1002174
:1014B0002046FFF7EBFE05460028EFD1002120462D
:1014C000FFF7E0FE05460028E8D1324639462046BF
:1014D000FFF782FE002828DB154B9C4210D003F555
:1014E00080539C421DD003F580539C421BD003F5D2
:1014F00075339C4202D04FF0FF3202E0032200E03D
:1015000000220E4902EB4203DC0001EBC3034FF063
:10151000FF30D860986000200851586018745861F6
:10152000BCE70122EDE70222EBE70546B6E700BF84
:1015300000200440E8960010349700100C000020B2
:1015400084461046B1FBF2F302FB1312814202D330
:10155000B2EB500F00D90133CCF810307047053989
:10156000032909D8036823F44063890201F4406128
:101570000B430360002070476FF00200704721B1F9
:10158000012908D06FF002007047036823F48053EC
:10159000036000207047036843F480530360002019
:1015A0007047042942D8DFE801F00309172533000A
:1015B000036823F01003036000207047036843F0C2
:1015C00010030360036823F020030360036823F023
:1015D0004003036000207047036843F0100303607A
:1015E000036823F020030360036843F040030360B3
:1015F00000207047036843F010030360036843F062
:1016000020030360036823F0400303600020704759
:10161000036843F010030360036843F02003036092
:10162000036843F040030360002070476FF002003E
:101630007047000038B504460D46032911D81F4BEA
:101640009C4217D003F580539C4232D003F580535F
:101650009C4230D003F575339C4209D04FF0FF32E5
:1016600009E040F2331216491648FEF789FEE6E714
:10167000032200E00022144B9B5CC3B9226812F4E1
:10168000004203D0236823F400432360236823F43B
:1016900040332D0405F440352B4323603AB12368D1
:1016A00043F400432360236813F4002FFBD0002091
:1016B00038BD0122DFE70222DDE700BF0020044041
:1016C000E8960010649700108C7400200068C0F346
:1016D00001407047436813F0100F01D1006A704752
:1016E0006FF00C007047436813F0800F02D1016265
:1016F000002070476FF00B0070474068C0F3032074
:1017000070474068C0F30330C0F1080070474B1EBB
:10171000072B08D8036823F00F0301F00F010B43D8
:101720000360002070476FF0020070470D4B1B787C
:101730008BB10020704703EB4C110B4A002042F89C
:10174000210001331F2BF6DD0CF1010CBCF1030F5E
:1017500004DC0023F6E74FF0000CF7E7014B012211
:101760001A70E6E7917400209476002070B5064662
:10177000032805D8032E09D8DFE806F0100A0C0E5E
:101780004E2215491548FEF7FBFDF3E7002506E05C
:10179000134D04E0134D02E0134D00E0134D2846B5
:1017A000FFF798FA044601462846FFF785FA002518
:1017B00001E00135640874B114F0010FF9D005EBB4
:1017C00046130B4A52F82320002AF2D0094951F857
:1017D00023009047EDE770BD8C970010D89700105C
:1017E00000900040000408400006084000800040CF
:1017F0009476002094740020014B1878704700BF45
:1018000090740020FEE700002DE9F041044600F04E
:1018100021FD304B304E1A68304F01321A60356866
:10182000002D4BD134601B68012B19D1B8464046BE
:10183000013501F0A1F8052D08F11408F7D1DFF802
:10184000BC80274D404601F097F8284601F094F8F7
:10185000244801F091F8244BC3F80080234B1D600D
:10186000234A136801331360224AE36A11688B42EA
:1018700088BF136014225343F918201D4A68A260E0
:101880009568E56068609060FA5861610132FA50CD
:1018900000F000FD184B1B6873B13368DA6AE36A25
:1018A0009A4209D24FF0E0234FF08052C3F8042D42
:1018B000BFF34F8FBFF36F8FBDE8F0810E4B1A68F7
:1018C000E36A002ACCD13268D26A9A4298BF346067
:1018D000C6E700BFB87800206479002000790020B6
:1018E000D8780020BC780020D4780020D078002060
:1018F0009C780020B0780020AC780020EC780020A4
:10190000064A13681968064B19B94FF0FF321A607E
:1019100070471268D2681268F9E700BFD4780020D7
:10192000987800202DE9F84F0C9C960007460D464C
:10193000206B3246A521DDE90AA9984601F08CFA10
:10194000D4F830B06DB16B1E04F133020F3513F8CB
:10195000011F02F8011F09B1AB42F8D1002384F83E
:101960004330BAF1040F08D94FF0A00383F3118874
:10197000BFF36F8FBFF34F8FFEE7201DC4F82CA07D
:10198000C4F844A001F003F8043E04F1180000F08C
:10199000FEFFCAF105050BEB06002461A561646238
:1019A0004246394620F0070000F026FC2060B9F1DD
:1019B000000F01D0C9F80040BDE8F88F70B5104B9A
:1019C000104D1C6806462868043000F0FAFF2B68AA
:1019D000A4195C6007D30C4B18682968BDE87040F7
:1019E000043100F0D7BF094B18682968043100F0B2
:1019F000D1FF074B1A68944238BF1C6070BD00BF0E
:101A0000B478002064790020D0780020D4780020B9
:101A1000987800202DE9F04387B0DDE90F94054662
:101A20000E4617469846B9F1000F08D14FF0A003B3
:101A300083F31188BFF36F8FBFF34F8FFEE744B975
:101A40004FF0A00383F31188BFF36F8FBFF34F8F65
:101A5000FEE768230593059A9A4208D04FF0A00349
:101A600083F31188BFF36F8FBFF34F8FFEE7002121
:101A70002046059B01F0F0F9022384F8653004ABA1
:101A8000C4F8309001930E9B00933A46434631468A
:101A900028460294FFF746FF2046FFF7B5FE04985C
:101AA00007B0BDE8F0832DE9F043074685B090000C
:101AB00088461646994600F08FFE054620B94FF03D
:101AC000FF3005B0BDE8F083682000F085FE0446D5
:101AD000A0B16822002101F0BFF90D9B256301939D
:101AE0000C9B009332464B46414638460294FFF722
:101AF00019FF2046FFF788FE0120E2E7284600F0A4
:101B0000FFFEDCE710B588B0002407AA06A905A8E7
:101B1000CDE90544FEF7BCFB059B0293069B079AA3
:101B200016491748CDE900432346FFF773FFA8B1D4
:101B300000F0FAFD012815D14FF0A00383F31188BE
:101B4000BFF36F8FBFF34F8F0E4B4FF0FF321A6012
:101B50000D4B18600D4B1C6000F006FC0C4B1B6815
:101B600008B010BD0130F9D14FF0A00383F3118804
:101B7000BFF36F8FBFF34F8FFEE700BFD099001008
:101B80000518001098780020AC780020B478002068
:101B9000E4990010024A136801331360704700BFD4
:101BA00094780020014B1868704700BFB47800207B
:101BB0002DE9F84F494B1B68002B40F08880484BBB
:101BC0001C6801341C60BCB9464B1A68126842B1EB
:101BD0004FF0A00383F31188BFF36F8FBFF34F8FD4
:101BE000FEE7414A19681068186011603F4A13689F
:101BF00001331360FFF784FEDFF804C1DCF8003026
:101C00009C424FF0000006D2394B1B68002B18BFD6
:101C10000120BDE8F88FDFF8CCE0DFF8E890354D23
:101C20008046DEF800301B6823B94FF0FF33CCF854
:101C30000030E9E7DEF80030DB68DB685A68944280
:101C400002D2CCF80020DFE7D3E90226596996607A
:101C500072604A681F1DBA420A6808BF4E60013AA6
:101C6000C3F814800A60996A71B1D3E907269660B7
:101C700072604A6803F1180A52450A6808BF4E604C
:101C8000013AC3F828800A60DA6AD9F800108A425B
:101C90004FF0140101FB02F105EB010A88BFC9F8FE
:101CA0000020DAF804609E60D6F808B0C3F80CB0E3
:101CB000CBF80470B760C3F814A06B5801336B50B5
:101CC0000D4B1B68DB6A9A4288BF0120A9E70B4ACB
:101CD00013680133136000209BE700BF9478002055
:101CE000B4780020D4780020D0780020A07800209C
:101CF000A47800200079002064790020A8780020D2
:101D000098780020B07800202DE9F84F444C2368E3
:101D100043B94FF0A00383F31188BFF36F8FBFF374
:101D20004F8FFEE700F096FA2368013B236023689B
:101D30002BB1002400F0AEFA2046BDE8F88F394AF6
:101D40001268002AF5D0384E384F3949DFF8ECE0F8
:101D5000DFF8E4804FF0140C4FF001093EE0F36827
:101D6000DB68D3E90724986A94606260426803F1F3
:101D70001805AA424FF0000208BF44609A62026848
:101D8000013A0260D3E902245869946062604268B3
:101D90001D1DAA42026808BF4460013A026038680B
:101DA000DA6A82420CFB02F001EB000A88BF3A605B
:101DB000DAF804409C60D4F808B0C3F80CB0CBF853
:101DC0000450A5600C58C3F814A001340C50DEF880
:101DD0000000C06A824201D3C8F800903268002A2D
:101DE000BDD10BB1FFF78CFD124D2C6844B1124EE2
:101DF0000127FFF7DDFE00B13760013CF9D12C600F
:101E00000D4B1B68002B94D04FF0E0234FF0805215
:101E1000C3F8042DBFF34F8FBFF36F8F012489E701
:101E200094780020B8780020BC780020B07800209A
:101E300000790020A8780020A47800206479002090
:101E400010B540B94FF0A00383F31188BFF36F8F33
:101E5000BFF34F8FFEE741B94FF0A00383F3118822
:101E6000BFF36F8FBFF34F8FFEE7194B1B6843B172
:101E70004FF0A00383F31188BFF36F8FBFF34F8F31
:101E8000FEE7FFF787FE134B02681B6851182CBF53
:101E9000012400249A4213D90CB18B4212D3016061
:101EA0000024FFF731FF48B94FF0E0234FF0805294
:101EB000C3F8042DBFF34F8FBFF36F8F204610BDC3
:101EC000002CEAD00160C81AFFF778FD0124E8E78A
:101ED00094780020B4780020F8B5234B1A68234B7F
:101EE00012B101221A60F8BD214C1A6023681B6BE5
:101EF0001A68B2F1A53F0BD15A68B2F1A53F07D1DC
:101F00009A68B2F1A53F03D1DB68B3F1A53F04D0D5
:101F1000206821683431FEF7B0F9164E1649326850
:101F2000142707FB02F3C818CD5885B1456808335C
:101F30006D6845600B449D4204BF6B684360142389
:101F400003FB02114B68DB6823603260CBE742B9C8
:101F50004FF0A00383F31188BFF36F8FBFF34F8F50
:101F6000FEE7013ADDE700BF94780020A478002066
:101F700064790020B07800200079002010B50C466C
:101F800040B94FF0A00383F31188BFF36F8FBFF305
:101F90004F8FFEE7044B1968183100F0FBFC204618
:101FA000BDE81040FFF70ABD6479002070B440B965
:101FB0004FF0A00383F31188BFF36F8FBFF34F8FF0
:101FC000FEE70D4B44681D68A668EC611D682E6233
:101FD0001D68183575601D681B681835A560986206
:101FE0000368002A03F10103036070BC0CBF0846BC
:101FF0004FF0FF30FFF7E2BC64790020C368DB6874
:10200000F0B543B94FF0A00383F31188BFF36F8F8E
:10201000BFF34F8FFEE7D3E907019A6A81604860FA
:10202000506803F11804A04208BF51600021996272
:102030001168013911601D4AD96A1268002A29D134
:10204000D3E902405A69A060446054681D1DAC4247
:1020500008BF5060106801381060154A106881424E
:1020600088BF1160134814224A43861874689C6024
:10207000A768DF607D60A5605E618358013383508F
:102080000D4B1B68DB6A994283BF0C4B0120186023
:102090000020F0BD0A4A5068D86185681D626C60F6
:1020A00084609A62136801331360E9E79478002032
:1020B000B07800200079002064790020A478002006
:1020C000BC780020034B1B680360034B1B68436014
:1020D000704700BFA0780020B478002038B50D46C6
:1020E000044640B94FF0A00383F31188BFF36F8F0C
:1020F000BFF34F8FFEE741B94FF0A00383F3118880
:10210000BFF36F8FBFF34F8FFEE700F0A3F80E4BC6
:10211000206819680D4B62681B68984208D08A4293
:1021200006D800232B60012400F0B4F8204638BD07
:102130002B68881A8342F4D95B1A134420462B601B
:10214000FFF7C0FF0024EFE7B4780020A07800205C
:10215000014B01221A607047A4780020054B1B68D0
:1021600033B1054B1868B0FA80F040094000704761
:1021700001207047AC78002094780020084800685F
:10218000006880F308884FF0000080F3148862B67E
:1021900061B6BFF34F8FBFF36F8F00DF00BF00004A
:1021A00008ED00E0DFF80C00016841F47001016007
:1021B0007047000088ED00E082B0002301930D4BD2
:1021C0001B68013308D04FF0A00383F31188BFF3DD
:1021D0006F8FBFF34F8FFEE74FF0A00383F311889B
:1021E000BFF36F8FBFF34F8F019B002BFCD002B06A
:1021F000704700BF6C0000204FF0807340F8043C33
:10220000074B40F80C3C21F001016FF0020340F84D
:10221000081C40F8202C40F8243C4438704700BF8C
:10222000B9210010000000000000000000000000C4
:10223000074B19680868B0E8F04F80F30988BFF3CE
:102240006F8F4FF0000080F311887047AFF300806C
:10225000647900204FF0A00383F31188BFF36F8FE0
:10226000BFF34F8F0A4A13680133012B13600ED15D
:102270004FF0E023D3F8043DDBB243B14FF0A003AD
:1022800083F31188BFF36F8FBFF34F8FFEE7704763
:102290006C000020084A136843B94FF0A00383F391
:1022A0001188BFF36F8FBFF34F8FFEE7013B1360C1
:1022B0000BB983F3118870476C0000200000000008
:1022C000EFF30980BFF36F8F154B1A681EF0100FE4
:1022D00008BF20ED108A20E9F04F10602DE90900B9
:1022E0004FF0A00080F31188BFF34F8FBFF36F8FC3
:1022F000FFF7F2FD4FF0000080F3118809BC196868
:102300000868B0E8F04F1EF0100F08BFB0EC108A5C
:1023100080F30988BFF36F8F704700BFAFF3008071
:102320006479002008B54FF0A00383F31188BFF350
:102330006F8FBFF34F8FFFF73BFC28B14FF0E023C7
:102340004FF08052C3F8042D002383F3118808BD99
:102350004FF0E02300221A619A61024A5A61072273
:102360001A6170479F8601004FF0E02337B5D3F81C
:10237000001D384A914208D14FF0A00383F3118821
:10238000BFF36F8FBFF34F8FFEE7D3F8002D324BB3
:102390009A4208D14FF0A00383F31188BFF36F8FE7
:1023A000BFF34F8FFEE72D4B1A78D2B20192FF2276
:1023B0001A701B782A4ADBB28DF803309DF803307F
:1023C00003F0A0031370274A072313609DF803103E
:1023D000136809060AD4042B11D04FF0A00383F32D
:1023E0001188BFF36F8FBFF34F8FFEE7013B136080
:1023F0009DF803305B00DBB28DF80330E6E74FF465
:1024000080631360019B154A4FF0E024DBB2137028
:10241000D4F8203D43F46003C4F8203DD4F8203DB7
:1024200043F06043C4F8203DFFF792FF0E4B0025B8
:102430001D60FFF7B7FED4F8343F43F04043C4F8C3
:10244000343FFFF79BFEFFF747FDFFF7B5FE284639
:1024500003B030BD71C20F4170C20F4100E400E013
:102460006C790020687900206C000020914208B54A
:10247000416000610AD8D21A83699A420DD2084B92
:10248000011D186800F086FA002008BD9A4201D2AA
:10249000994202D2034B011DF3E70120F5E700BF8B
:1024A0003C7A0020407A002070B504460D4616465E
:1024B000A1692B46324629442046FFF7D7FF00B9D1
:1024C00070BDA36920461D44236A9847F0E70000C9
:1024D0000E4B1B68DB6870B5DC680546201D0E4698
:1024E00000F06FFA94F824305A0709D5324629468D
:1024F0002046FFF7D9FF236A2046BDE87040184701
:1025000023F0010384F82430F5E700BF407A00206F
:10251000F8B50F4E0546FFF745FB33688342044686
:1025200009D90C4F3B681A6852B90B4A11683960D7
:102530001360012300E000232B6034602046F8BDC7
:10254000DB684FF0FF311868FFF7C2FFEAE700BF12
:10255000307A0020407A00203C7A00202DE9FF41AB
:10256000FDF794FE534F544E3B68D3F80080B8F10A
:10257000000F34D0DB68D3F800800024FFF70AFB9B
:1025800001A8FFF7C5FF019B0546002B44D144BBC2
:1025900040452CD3FFF7B8FB29464046FFF798FF8C
:1025A0003068002201A900F0F9FA0028DCD0019B74
:1025B000002BF5DB039C636913B1201D00F001FAC9
:1025C0006846FFF7A5FF019B013B0546082BE7D8AE
:1025D000DFE803F02525484F682525484F000124F2
:1025E000CCE7364B1B681C68B4FA84F46409306885
:1025F0002246A8EB050100F097FBFFF785FB0028BA
:10260000CED14FF0E0234FF08052C3F8042DBFF33A
:102610004F8FBFF36F8FC3E7FFF776FBC0E794F8E8
:102620002430A16943F0010384F82430029B024660
:1026300019442046FFF71AFF0028B1D094F824303F
:1026400059070AD5A36902992A4619442046FFF77B
:102650002BFF236A20469847A2E723F0010384F862
:102660002430F6E794F8243023F0010384F8243072
:1026700096E794F8243043F0010384F8243002995B
:10268000A16141B94FF0A00383F31188BFF36F8FAD
:10269000BFF34F8FFEE70346024601442046FFF793
:1026A000E5FE7DE794F824309A07DDD4204600F05B
:1026B00027F975E7407A0020387A00203C7A00201C
:1026C000F7B5114CFFF7C6FD2568BDB90F4F104E89
:1026D000384600F051F9304600F04EF90D4B0E4AE5
:1026E0001F600E4B0C211E600A200D4B009500F060
:1026F0001CFA206010B10B4900F0EEFA03B0BDE8FF
:10270000F040FFF7C7BD00BF387A0020587A00209C
:10271000447A0020407A0020B87900203C7A0020DA
:1027200070790020D599001010B588B0FFF7C8FF68
:10273000124B1B68B3B1002407AA06A905A8CDE96E
:102740000544FDF7B1FD059B0293069B019303230E
:102750000093079A0A490B482346FFF75BF90A4B97
:10276000186040B94FF0A00383F31188BFF36F8F57
:10277000BFF34F8FFEE7012008B010BD387A00206C
:10278000DA9900105D250010347A002010B5104B46
:102790001A461B688342FBD354681119884201BF53
:1027A0004168104609195160446801198B420CD1E7
:1027B000084909688B4203D059682144416019686F
:1027C0000160904218BF106010BD1946F8E700BFC5
:1027D000807A00207C7A0020F8B50446FFF7DAF909
:1027E00041480368F3B9414A414D51071FBFD11D0C
:1027F00021F0070102F5D042531A0CBF4FF4D04329
:102800000A461344083B23F00703002169602A604D
:10281000C3E90011991AC2E900310360354B196010
:10282000354B196064B104F00703A3F11102A24211
:1028300006D304F11002A2EB030CBCF1000F06DC7E
:10284000FFF762FAFDF710FD00273846F8BD2A4E63
:1028500035686545F4D326490C68D4F804E0E645AC
:1028600001D22768B7B90068A042E9D09B1A734427
:1028700020680F680860102B14D904EB0C00420785
:102880000BD04FF0A00383F31188BFF36F8FBFF31A
:102890004F8FFEE721463C46DFE74360C4F804C0A3
:1028A000FFF774FF62681349AD1A42F0004262609C
:1028B000124A08683560002323601368854203F1DB
:1028C000010307F1080738BF0D601360FFF71CFA1A
:1028D0007B07BAD04FF0A00383F31188BFF36F8F4B
:1028E000BFF34F8FFEE700BF7C7A0020180C00205A
:1028F000807A0020747A0020787A0020707A002094
:1029000010B5044698B350F8042C002A08DB4FF0A9
:10291000A00383F31188BFF36F8FBFF34F8FFEE7E0
:1029200050F8081C41B14FF0A00383F31188BFF3A6
:102930006F8FBFF34F8FFEE722F0004240F8042C68
:10294000083A00F089FAFFF725F9094A54F8043CDF
:102950001168A4F108000B441360FFF717FF054A44
:102960001368BDE8104001331360FFF7CDB910BD07
:10297000787A00206C7A002000F108034FF0FF32D3
:10298000C0E9022343600361002303607047002312
:102990000361704730B50C68631C0AD103695A683B
:1029A0004A6091608B60596003680861013303607D
:1029B00030BD00F10802134652681568A542FAD9E5
:1029C000EDE7D0E9011203698A60516059688142DC
:1029D00008BF5A60002202611A68013A1A6018683A
:1029E000704710B50446FFF735FCA46BFFF752FCA7
:1029F000B4FA84F0400910BD034610B41A6C0846BE
:102A00006AB1DC68996814448C4228BF1968DC609C
:102A100028BFD960D9685DF8044B01F05DBE5DF850
:102A2000044B704770B50446FFF714FC94F845500A
:102A300004F124066DB2002D01DD636AB3B9FF23F2
:102A400084F84530FFF726FCFFF704FC94F8445067
:102A500004F110066DB2002D01DD23697BB9FF235F
:102A600084F84430BDE87040FFF714BC3046FFF7EF
:102A7000C5FA08B1FFF76CFB013D6DB2DBE73046EC
:102A8000FFF7BCFA08B1FFF763FB013D6DB2E2E767
:102A900070B50E46044640B94FF0A00383F3118889
:102AA000BFF36F8FBFF34F8FFEE7C56BA5B3036C0A
:102AB000A3FB053585BBFFF7CDFBD4E90F312268B9
:102AC00062604B43D0185B1A1A44FF23A563A060D1
:102AD00084F84430E26084F84530A6B9236973B1C4
:102AE00004F11000FFF78AFA48B14FF0E0234FF0ED
:102AF0008052C3F8042DBFF34F8FBFF36F8FFFF7E2
:102B0000C9FB012070BD04F11000FFF735FF04F18F
:102B10002400FFF731FFF2E74FF0A00383F31188A1
:102B2000BFF36F8FBFF34F8FFEE737B50D461C46DF
:102B300043B94FF0A00383F31188BFF36F8FBFF346
:102B40004F8FFEE708B14AB151B94FF0A00383F3AC
:102B50001188BFF36F8FBFF34F8FFEE70029F4D1C9
:102B600048230193019B482B08D04FF0A00383F327
:102B70001188BFF36F8FBFF34F8FFEE70121002D48
:102B800008BF2246C4E90F0584F84610226020469B
:102B9000019BFFF77DFF204603B030BD2DE9FF41CB
:102BA0000E460192044640B94FF0A00383F311880A
:102BB000BFF36F8FBFF34F8FFEE751B9036C43B183
:102BC0004FF0A00383F31188BFF36F8FBFF34F8FD4
:102BD000FEE7FFF7C3FA054618B300254FF00008DB
:102BE000FFF738FBA76B47B331462046013FFFF79D
:102BF00003FFA763236973B104F11000FFF7FEF927
:102C000048B14FF0E0234FF08052C3F8042DBFF3DA
:102C10004F8FBFF36F8FFFF73DFB012004B0BDE87E
:102C2000F081019B002BD9D04FF0A00383F31188D2
:102C3000BFF36F8FBFF34F8FFEE7019B1BB9FFF709
:102C400029FB0020EAE715B902A8FFF73BFAFFF7D6
:102C500021FBFEF79FFFFFF7FDFA94F84430FF2BAE
:102C600008BF84F8448094F84530FF2B08BF84F8EF
:102C70004580FFF70FFB01A902A8FFF72FFA00BB61
:102C80002046FFF7AEFEB0B1019904F12400FFF732
:102C900075F92046FFF7C6FEFFF736F848B94FF042
:102CA000E0234FF08052C3F8042DBFF34F8FBFF3E2
:102CB0006F8F012594E72046FFF7B4FEFFF724F855
:102CC000F7E72046FFF7AEFEFFF71EF82046FFF7B6
:102CD00088FE0028EDD0B4E770B540B94FF0A003EE
:102CE00083F31188BFF36F8FBFF34F8FFEE7B9B146
:102CF0000C4A00231C4615465668864204D105EB53
:102D0000C403C3E900100BE01BB91668002E08BF0E
:102D1000134601340A2C02F10802EDD1002BF0D148
:102D200070BD00BF887A002070B504460D46164677
:102D3000FFF790FA94F84430FF2B04BF002384F887
:102D4000443094F84530FF2B04BF002384F845300D
:102D5000FFF7A0FAA36B2BB93246294604F12400F1
:102D6000FFF724F92046BDE87040FFF75BBE000086
:102D70000000000000000000000000000000000053
:102D800030B490F800F020F007016FF0000C10F064
:102D9000070491F820F040F048804FF000046FF0F5
:102DA0000700D1E9002391F840F000F1080082FA11
:102DB0004CF2A4FA8CF283FA4CF3A2FA8CF34BBBDC
:102DC000D1E9022382FA4CF200F10800A4FA8CF255
:102DD00083FA4CF3A2FA8CF3E3B9D1E9042382FA23
:102DE0004CF200F10800A4FA8CF283FA4CF3A2FA38
:102DF0008CF37BB9D1E9062301F1200182FA4CF270
:102E000000F10800A4FA8CF283FA4CF3A2FA8CF3D6
:102E1000002BC6D0002A04BF04301A4612BAB2FAF8
:102E200082F200EBD20030BC7047D1E9002304F0FD
:102E30000305C4F100004FEAC50514F0040F91F832
:102E400040F00CFA05F562EA05021CBF63EA0503CF
:102E500062464FF00004AAE7830730B547D0541EFE
:102E6000002A3ED0CAB2034601E0013C39D303F840
:102E7000012B9D07F9D1032C2CD9CDB205EB0525EB
:102E80000F2C05EB054535D9A4F1100222F00F0CEB
:102E900003F1100EE6444FEA121C1A46C2E900552F
:102EA000C2E9025510327245F8D10CF1010214F05A
:102EB0000C0F03EB021204F00F0C13D0ACF104035F
:102EC00023F003030433134442F8045B9342FBD121
:102ED0000CF003042CB1C9B21C4403F8011BA3423B
:102EE000FBD130BD64461346002CF4D1F9E703460C
:102EF0001446C0E71A46A446E0E700BF014B186835
:102F0000704700BF700000202DE9F04F01F10B0564
:102F1000162D83B0064623D8102900F2AF8001F0A9
:102F2000ABFC102518230220C04F3B44A3F108023C
:102F30005C68944200F024816368E268A16823F031
:102F40000303CA602344304691605A6842F001028C
:102F50005A6001F093FC0834204603B0BDE8F08FBE
:102F600035F0070500F18A80A94200F2878001F060
:102F700083FCB5F5FC7FC0F06B816B0A00F08280AA
:102F8000042B00F22381AB0903F1390003F1380E61
:102F9000C300A64F3B44A3F1080C5C68A44507D1CD
:102FA0000DE0002AE16880F2E5808C4507D00C46F0
:102FB000636823F003035A1B0F2AF2DD7046DFF823
:102FC00070823C69444500F0C280636823F0030CC2
:102FD000ACEB05030F2B00F33F81002BC7E90488FE
:102FE00080F22A81BCF5007FD7F804E080F0CE8023
:102FF0004FEADC0101314FEA5C1C012303FA0CF3B8
:1030000057F83120A2604EEA030E07EBC103083BDC
:10301000E360C7F804E047F83140D46083104FF014
:10302000010C0CFA03FCF44532D81CEA0E0F08D14F
:1030300020F003004FEA4C0C1CEA0E0F00F10400D4
:10304000F8D007EBC00AD6468146DEF80C300BE01C
:10305000596821F003014A1B0F2A1C46DB6800F364
:10306000C180002A80F2D5809E45F1D109F1010985
:1030700019F0030F0EF1080EE7D116E10C233360AF
:10308000002469E74FF4007340204FF03F0E80E7C3
:10309000BC68636823F00309A94503D3A9EB0503C2
:1030A0000F2B57DCDFF88CB1DBF8002004EB0903B1
:1030B0001032082002EB0508009301F0A7FBD7F8B7
:1030C00008140131024605D008F1FF38804441421E
:1030D00001EA080841463046019201F0CBFEB0F10A
:1030E000FF3F019A824600F0D280009B834200F2AB
:1030F000CC80DBF804104144CBF80410084602F100
:10310000FF3C40F0F4801AEA0C0F40F0F080D7F852
:1031100008A0C84448F00100CAF80400DBF82C20DD
:103120008A42DBF8302038BFCBF82C108A4238BFF7
:10313000CBF83010544620F00308A845A8EB05034F
:1031400001D30F2B06DC304601F098FB98E7D7F847
:1031500004E063E7621943F0010345F0010565608F
:103160003046BA60536001F089FB0834204603B052
:10317000BDE8F08FA2682344D16030468A60E4E65F
:10318000DC68A3427FF4D8AE023018E7BCF5206FAC
:103190004FEA5C2272D3142A00F2088102F15C0328
:1031A000DB005B32F918FB580839994203D1E4E09F
:1031B0009B68994204D05A6822F003026245F7D80E
:1031C000D968C4E902318C60DC6027E7142B61D92F
:1031D000542B00F2F4802B0B03F16F0003F16E0E01
:1031E000C300D6E6D4F808C03046661945F001059C
:1031F0006560CCF80C30C3F808C042F00103C7E9A1
:103200000466C6E902887360625001F037FB083437
:10321000A2E6214430464A6842F001024A6054F86E
:10322000082FD3609A6001F029FB95E698010020F1
:10323000A0010020D87A0020A4443046DCF80430F5
:1032400043F00103CCF8043001F018FB083483E6A6
:10325000E80805F1080367E6621943F0010145F04B
:10326000010565603046C7E90422C2E90288516061
:1032700044F80C3001F002FB08346DE64FEA9C1272
:1032800002F13903DB0038328CE7BC4228D0BC683D
:10329000606850E703F15C0003F15B0EC30078E661
:1032A0005AF80839534540F0D78010F0030F00F169
:1032B000FF30F5D17B6823EA0C037B604FEA4C0CAE
:1032C0009C453FF6E5AEBCF1000F04D1E0E64FEAC5
:1032D0004C0C09F104091CEA030FF8D04846B0E68B
:1032E000DBF804004044CBF8040002F1FF3CD7F8BF
:1032F000081401316DD0009BAAEB03031844CBF8EE
:1033000004001AF00703009341D0C3F108018A4476
:10331000D0440A4408EA0C01521A02EA0C01304671
:10332000019101F0A7FD421C6FD00199A0EB0A00AA
:1033300000EB0108DBF80420C7F808A048F0010002
:103340001144BC42CAF80400CBF804103FF4E6AEC6
:10335000B9F10F0F40D96268A9F10C0020F0070005
:1033600002F0010202436260052322180F28C2E91D
:10337000013352D8DAF80400D0E692104FF0010C75
:103380000CFA02F24EEA020EC7F804E019E70AEB63
:10339000080101EA0C01521A02EA0C0130460191BF
:1033A00001F068FD431CC0D10099C3E7542A17D827
:1033B0004FEA1C3202F16F03DB006E32F2E6B3F526
:1033C000AA7F17D8EB0B03F1780003F1770EC30047
:1033D000DFE5C7F808A494E70123CAF80430B2E691
:1033E000B2F5AA7F23D84FEADC3202F17803DB0082
:1033F0007732D7E640F25452934223D8AB0C03F114
:103400007D0003F17C0EC300C3E5009BA3F108021D
:103410009044A8EB0A0800218CE704F1080130462B
:1034200001F04EF8DBF80410D7F808A0A2E740F24C
:1034300054539A420CD84FEA9C4202F17D03DB00C0
:103440007C32AFE64FF47E737F204FF07E0EA0E516
:103450004FF47E737E22A5E67B682FE70000000014
:103460002DE9F04F03690C69A34283B0C0F28A8052
:10347000013C01F1140500F1140855F8243058F806
:10348000242001339A428E4681464FEA840105EB9F
:10349000840708EB840AB2FBF3F63AD3CDE90015B2
:1034A0000022AC46404613465CF8041B05681FFA30
:1034B00081FB06FB0B22090C4FEA124B06FB01BBFA
:1034C00092B2A9B2891A19441FFA8BF3C3EB2143B4
:1034D00003EB154389B241EA0341674540F8041BF9
:1034E0004FEA1B424FEA2343DED2DDE9001558F8CC
:1034F000013073B9AAF1040AD04504D307E0D045DE
:1035000004F1FF3403D25AF80439002BF7D0C9F87C
:1035100010407146484601F0DBFF00282EDB414693
:10352000002255F8040BD1F800C01FFA80FE1FFAE4
:103530008CF3A3EB0E031344020CC2EB234202EB09
:103540001C429BB243EA0243AF4241F8043B4FEABC
:103550002242E6D258F8242008EB84036AB9043BDF
:10356000434504D807E0984504F1FF3403D253F8EB
:103570000429002AF7D0C9F810400136304603B0BC
:10358000BDE8F08F002003B0BDE8F08F2DE9F04FCB
:10359000816B9BB016461F46CDE90667279D0490B8
:1035A00049B1C26B4A600123934004468B6001F02D
:1035B000D3FC0023A363B7F10009B4BF01230023A8
:1035C0002B60774BBCBF29F00049CDF81C9033EA43
:1035D000090300F0AC809DED067B002251EC170B37
:1035E00000238DED027B05F0BDFD804668B1269A73
:1035F00001231360289B13B1289A6A4B13606A4B0E
:10360000059305981BB0BDE8F08F18AB019319AB7B
:1036100000930498DDE9022302F0BEF85FEA195531
:10362000824640F09A80DDE91885454405F2324330
:10363000202B40F38983C3F1400309FA03F905F213
:10364000124326FA03F349EA030005F0A9FA01231D
:10365000013DA1F1F8711093544B002205F062F97D
:1036600049A3D3E9002305F015FB49A3D3E90023BF
:1036700005F05AF9064628460F4605F0A1FA46A37A
:10368000D3E9002305F006FB02460B4630463946D7
:1036900005F04AF906460F4605F0ACFD0022044647
:1036A000099000233046394605F066FD002840F0B9
:1036B0002183099CA8EB050808F1FF33162C089319
:1036C00000F289813A4B03EBC403D3E90023DDE91F
:1036D000020105F051FD002870D0631E09930023FC
:1036E0000F93089B002BC0F27C8100230A93099B57
:1036F000002B69DADDE90932D21A0A920B935A4299
:1037000000230993249B0E92092B67D8052B40F3C5
:103710002083043B24930025249B023B032B00F2CF
:103720003586DFE813F06E046B0462044604269AC3
:10373000C9F3130942F20F7359EA060913601CD149
:10374000289B002B00F042861A4B05930833289AD9
:10375000059813601BB0BDE8F08FDDE90212C2F3DB
:103760001303084643F07F51CDF84080A5F2FF35A2
:10377000DDF8608041F440116EE7289B002B40F09B
:10378000F3830D4B05933CE761436F63A787D23FFB
:10379000B3C8608B288AC63FFB799F501344D33F40
:1037A0000000F07F09980010089800100000F83F12
:1037B000F8990010F897001004980010B8F1000F65
:1037C00040F3A4840F900A90DDE908321344089373
:1037D00000230E93249B0B92092B97D90023CDE94C
:1037E000243301250C954FF0FF3B049BCDF844B0EA
:1037F0000021D963049801F089FB0590002800F0AE
:10380000CE85DDE90432BBF10E0F9A6300F2188118
:10381000002D00F015810B99002940F34784B34B2C
:1038200001F00F0203EBC203C805D3E900894FEA98
:10383000211540F10984AE4BDDE90201D3E90823EB
:1038400005F052FBCDE9120105F00F0503277DB10C
:10385000A74EE90708D540464946D6E9002305F0BA
:1038600019FA0137804689466D1006F10806F0D135
:1038700042464B46DDE9120105F036FB804689469B
:103880000F9B43B19B4B00224046494605F074FC18
:10389000002840F00B85384605F092F942464B4629
:1038A00005F0F8F9944B002205F03EF8A1F15073B1
:1038B000CDE912011393BBF1000F00F0A8800B9B20
:1038C000CDE916B34946404605F094FC169A874B5D
:1038D00003EBC20313ED027B05468DED147B05F06F
:1038E0006FF90B4602464946404605F01BF8059F16
:1038F0000C9B30357E1CECB2804689463546002B49
:1039000000F06C84DDE914237C49002005F0ECFA1A
:10391000DDE9122305F006F83C7042464B460446AA
:103920000D4605F047FC002840F0B884CDF848A0CB
:10393000CDF850B00027AB46A246169D2AE00137CD
:10394000AF4280F2FD846E4B50465946002205F08E
:10395000A1F96B4B002282468B464046494605F052
:1039600099F98946804605F045FC044605F028F99A
:1039700002460B464046494604F0D4FF303406F870
:10398000014B52465B468046894605F0F5FB002810
:1039900040F0D38442464B465649002004F0C2FF13
:1039A00052465B4605F0E8FB0028C8D0179BDDF8BF
:1039B00048A0059A374603F1010802E0974200F05B
:1039C0009B843E4617F8013D392BF7D00133DBB21B
:1039D0003B7045467DE101230F93089B002BBFF60A
:1039E00084AEC8F101030A93002308937FE63846AA
:1039F00005F0E6F842464B4605F04CF93E4B0022F6
:103A000004F092FFA1F15073CDE9120113933D4BE5
:103A100000224046494604F085FFDDE91245224672
:103A20002B4606460F4605F0C5FB002840F0738480
:103A300030463946224605F1004305F09DFB28BB80
:103A4000199B002BC0F290800B9A0E2A00F38C80F9
:103A5000264B0B9A03EBC20393ED007B259B002BB7
:103A60008DED067B19DABBF1000F16DC0ED1254B6C
:103A70000022DDE9060105F00DF902460B46DDE9FD
:103A8000020105F083FB002800F045840023059E19
:103A900002931F46259BDD432DE2059B5D1CDDE95E
:103AA0000678DDE902013A46434605F01DFA05F0C5
:103AB000A1FB064605F084F83A46434605F0EAF8CD
:103AC00002460B46DDE9020104F02CFF059A06F1DF
:103AD0003003BBF1010F2F46137000F02283012544
:103AE000CDF808A0A846DDE9069A2BE0F899001069
:103AF000E89A00100000F03F00001C400000E03F8A
:103B000000002440000014404A46534620462946FF
:103B100005F0EAF905F06EFB064605F051F84A4655
:103B2000534605F0B7F808F101080B46024629464E
:103B3000204604F0F7FE06F13003D84507F8013BB4
:103B400000F0ED82844B002205F0A4F8002200234F
:103B500004460D4605F006FB0028D5D00B9DDDF888
:103B600008A001353E46B4E00C9A002A40F0D88007
:103B700000230E9E0A9D0C931F4665B1089A002AE9
:103B800009DD0A99AA421346A8BF2B46C91AED1AA5
:103B9000D31A0A9108930E9B53B10C9B13B1002EBC
:103BA00040F0F88251460E9A049801F0BFFB82461D
:103BB0000498012101F0D6FA099B0290002B40F0F5
:103BC000BE81249B012B40F3D4810120089A10442C
:103BD00010F01F0000F09B80C0F12003042B40F385
:103BE000E3810A9BC0F11C00034402440A9305448C
:103BF00008920A9B002B05DD514604981A4601F0F5
:103C0000EFFB8246089B002B05DD029904981A46BB
:103C100001F0E6FB02900F9B002B40F07581BBF199
:103C2000000F40F34C810C9B002B40F0A4800B9DB7
:103C30000135DDF81480029CDDF81090012607E0C4
:103C4000514600230A22484601F090F90136824687
:103C500021465046FFF704FCB34500F1300008F858
:103C6000010BEDDCBBF1000F059BCCBF5E460126CE
:103C7000814603EB060B002451460122049801F013
:103C8000AFFB0299824601F023FC002840F3EF814C
:103C9000059A02E0934500F004825E460BF1FF3B7B
:103CA00016F8013C392BF5D001338BF80030DDF8E4
:103CB00010800299404601F04FF957B12CB1BC4237
:103CC00003D02146404601F047F90498394601F0F7
:103CD00043F90498514601F03FF900233370269BC5
:103CE0001D60289B002B3FF48CAC05981E601BB018
:103CF000BDE8F08F204604F063FF32463B4605F0F6
:103D000031FA00287FF4D5AC631E0993D1E41C235B
:103D10000A9A1A440A92089A1A441D44089268E7BB
:103D2000249A012A40F3AE810E9B0BF1FF36B34279
:103D3000C0F26A81BBF1000FA3EB060680F2EF82AE
:103D40000A9BA3EB0B056DE1C3F1200306FA03F018
:103D50007BE40125E0E400BF000024403946002355
:103D600004980A2201F002F9119B002B074640F348
:103D7000FF820B969B46002D05DD394604982A46A6
:103D800001F02EFB0746099B002B40F0E781B84667
:103D9000059E731E03EB0B04069B0A9403F00103BC
:103DA000049C0C9302995046FFF75AFB3946834610
:103DB000504601F08DFB029905464246204601F02F
:103DC000A9FBC3680BF130090146ABBB0990504613
:103DD00001F07EFB09990890204601F0BDF8089A91
:103DE000002A54D1249B1BB90C9B002B00F0AE82FF
:103DF000002D3FDB0A9BB3469E420BF8019B00F06F
:103E0000C481514600230A22204601F0AFF84745FD
:103E1000824639464FF000034FF00A02204630D068
:103E200001F0A4F84146074600230A22204601F08B
:103E30009DF85E468046B5E7049801F08DF8002DA8
:103E400006DB069B03F00102249B1D432A4329D174
:103E500051460122049801F0C3FA0299824601F00A
:103E600037FB002840F3F780B9F1390F00F04982A1
:103E70000BF131090B9D06F8019B3C460135474685
:103E800015E701F073F85E46074680468AE7002D85
:103E9000C0F29382249B1D430C9B1D4300F08D8236
:103EA000002AA7DDB9F1390F00F02B820B9D09F133
:103EB00001033C4606F8013B01354746F7E6249BE3
:103EC000022B7FF7B0AEBBF1000F40F026810299C4
:103ED00004985B46052201F049F8014602905046DD
:103EE00001F0F6FA002840F31881059E0B9D31235E
:103EF00006F8013B01350299049801F02DF80135CF
:103F0000002F7FF4E2AEE4E60299504601F0E0FAB9
:103F10000028BFF684AE5146002304980B9C0A2269
:103F200001F024F80C9B661E8246002B7FF416AF2E
:103F3000119B002B40F311820B9D9B4679E60146B5
:103F40001A46049801F0F2F9249B0290012B6FDDD0
:103F500000230993029A136902EB8303186901F0A5
:103F6000AFF8C0F1200031E6984B05930333FFF71B
:103F7000EEBB069B002B7FF428AEDDE90612C2F3F0
:103F80001303002B7FF421AE914B134033B10A9BF6
:103F900001330A93089B013308930123099A09937B
:103FA000002A3FF412AED5E73FF423AEC0F13C0344
:103FB000AEE601230C93259B0B9A134403F1010BEE
:103FC0005E46012E1193B8BF0126172E40F3F981EA
:103FD000012204235B0003F11400B042114602F1F8
:103FE0000102F7D9049BD96304E401230C93259BB8
:103FF000002B37DD11939B461E46E6E700230C930A
:10400000D9E700230C93F2E70E9B099A0E96F31A58
:104010001A44089B09925B4408930A9B1D465B4423
:104020000A9300260498012101F09CF80746A4E5B4
:10403000069B002B8CD1DDE90601C1F313030A4670
:10404000002BA1D0099085E79DED027B02278DED25
:10405000127BFFF7FCBB7FF40DAF19F0010F7FF46B
:1040600003AF07E7012325939B46FFF7BEBB03D1B0
:1040700019F0010F7FF40CAE5E461BF8013D302BAA
:10408000FAD014E6109A002A00F09C8003F2334321
:10409000089A0E9E1A4408920A9A15461A440A92E1
:1040A000C0E7059A31230135137000E600F0F9806E
:1040B0000B9A484B554205F00F0203EBC203D3E9BC
:1040C0000023DDE9020104F0E5FD2D11CDE9120127
:1040D00000F05781404E0023022780468946EA07B8
:1040E00009D5D6E900234046494604F0D3FD0137FF
:1040F0008046894601236D1006F10806EFD1002B9A
:104100007FF4BEABDDE91289FFF7BABBC8F101034A
:1041100008900A930F90FFF757BB059EBAE4DDF8AD
:1041200008A002460B4604F0FFFB0B9DCDE90201FF
:10413000013502460B46DDE90601A84605F01CF8EC
:1041400040B9DDE90223DDE9060105F00BF818B1FD
:10415000F30701D5059A34E43E46BAE57968049838
:1041600000F0D4FE0546002800F020813B690233B0
:104170009A0007F10C010C3000F0AEFA04982946C1
:10418000012201F02DF9804602E60B9D3C460135E7
:10419000474671E5049C39463246204601F0C6F890
:1041A000524601460746204601F00AF8514680462D
:1041B000204600F0D1FE0E9B9B1BC2460E933FF49F
:1041C000F7ACEFE4189BC3F1360361E704980010E5
:1041D0000000F07FF8990010E89A0010DDE9142340
:1041E000DDE9120104F056FD059B1C70169B012BA6
:1041F000CDE90C0100F0C380169F059B10961F446B
:104200007A4B00224046494604F044FD0D460446E0
:1042100004F0F0FF814604F0D3FC09F130090246B6
:104220000B462046294604F07DFB06F8019BBE4262
:1042300080468946E4D1109D6D4B0022DDE90C01DA
:1042400004F072FB02460B464046494604F0B2FFBA
:1042500000286CD1DDE90C236549002004F062FBE5
:1042600002460B464046494604F086FF80B9199B3A
:10427000002BFFF67DAC0B9B0E2B3FF779AC5D4B13
:104280000B9A03EBC20393ED007B8DED067B06E4F6
:104290003E46013F16F8013C302BF9D0179D013501
:1042A00017E5DDE902890227FFF7EABABBF1000F43
:1042B0003FF49DAB119C002C7FF7C2AB0B9B013BE5
:1042C0000022404649461793484B04F0E3FC8046E1
:1042D0008946781C04F074FC42464B4604F0DAFC34
:1042E000454B002204F020FBA1F15073CDE91201EF
:1042F00016941393FFF7E6BA08F101083123FFF78C
:1043000067BB0B9D059AB34639233C460BF8013B2E
:1043100001354746C1E4002302931F46E5E5089BAB
:104320005B4408930A9B1D465B440A937AE6179BFD
:10433000059A03F10108FFF744BBDDF848A0ADE79B
:10434000DDF848A0DDF850B0FFF77ABBB9F1390FBE
:10435000D7D0002D3FF78CAD8CE5249B022B03DCDE
:104360000B9DDDF844B064E4DDF844B00B96AAE59B
:10437000249B022BF8DCDDF844B00B96FBE43746B7
:104380005AE7DDE912890227FFF77ABA049B002574
:10439000DD632946184600F0B9FD0590D0B9174BEA
:1043A0001748002240F2AF1100F08AFD134B144869
:1043B0002A4640F2EF2100F083FD002A3FF748AD86
:1043C00058E5049B0021D963FFF714BA0D4B059300
:1043D000FFF717B9DDE904329A634FF0FF3301228A
:1043E000259511930C929B46FFF72ABB00002440B1
:1043F0000000E03FF899001000001C400C980010ED
:1044000020980010F89700102DE9F8430646082080
:10441000894600F0FBF9DFF8A4800546304600F03D
:104420002BFAD8F808305F6827F00307A7F11104CA
:10443000A4EB09042C44B4FBF5F4013C05FB04F4A3
:10444000A54208DC0021304600F014FDD8F8083001
:104450003B44984205D0304600F010FA0020BDE8F9
:10446000F8836142304600F005FD01300FD0114A5B
:10447000D8F808303F1B47F001075F6013683046EB
:104480001B1B136000F0FAF90120BDE8F88300213E
:10449000304600F0EFFCD8F80820831A0F2BDADD45
:1044A00043F001035360044B02491B68C01A0860C3
:1044B000D1E700BFDC7A0020A00500209801002091
:1044C00000297CD02DE9F0410C46804600F0D4F95B
:1044D00054F8043C754FA4F1080523F00101681855
:1044E000BE684268864222F0030200F08380DE0745
:1044F000426000EB020C33D454F8084CDCF8043072
:104500002D1B2144AC6807F1080C644503F001033E
:1045100064D0D5F80CE0C4F80CE0CEF80840002BCD
:1045200000F0818041F001036B600160B1F5007F14
:1045300022D27868CB080122490901338A4002431C
:1045400057F833107A6007EBC302083AC5E9021244
:1045500047F83350CD604046BDE8F04100F08EB9D9
:10456000DCF80430DB072BD541F00103B1F5007F07
:1045700044F8043C0160DCD3B1F5206F4FEA5123CD
:1045800053D28B0903F1390003F13802C300F81844
:10459000FB580838984203D161E09B68984204D0E8
:1045A0005A6822F003028A42F7D8D868C5E9023077
:1045B0008560DD604046BDE8F04100F05FB97047BE
:1045C000114407F1080C836863453FD0C268DA6084
:1045D000936041F001036B606950A7E7002B5FD146
:1045E0000A44D0E90213CB60996042F001036B608A
:1045F000AA50B0E7DB070A4407D454F8083CED1A88
:104600001A44D5E90213CB60996042F001036B6054
:10461000274BBD601B6893429DD8264B40461968C6
:10462000FFF7F2FE97E71144CDE7142B08D9542B7E
:104630001DD80B0B03F16F0003F16E02C300A6E758
:1046400003F15C0003F15B02C300A0E741F001034A
:10465000C7E90455C5E902CC6B6069507BE779680E
:104660009210012404FA02F20A437A609EE7B3F53D
:10467000AA7F06D8CB0B03F1780003F17702C300C1
:1046800085E740F25452934206D88B0C03F17D002B
:1046900003F17C02C3007AE74FF47E737E2276E753
:1046A00041F001036B60016055E700BF98010020F5
:1046B000A4050020D87A0020024B01461868FEF7B6
:1046C00023BC00BF70000020024B01461868FFF7B2
:1046D000F7BE00BF70000020844641EA000313F0DB
:1046E00003036DD1403A41D351F8043B40F8043BF9
:1046F00051F8043B40F8043B51F8043B40F8043BBC
:1047000051F8043B40F8043B51F8043B40F8043BAB
:1047100051F8043B40F8043B51F8043B40F8043B9B
:1047200051F8043B40F8043B51F8043B40F8043B8B
:1047300051F8043B40F8043B51F8043B40F8043B7B
:1047400051F8043B40F8043B51F8043B40F8043B6B
:1047500051F8043B40F8043B51F8043B40F8043B5B
:1047600051F8043B40F8043B403ABDD2303211D3FB
:1047700051F8043B40F8043B51F8043B40F8043B3B
:1047800051F8043B40F8043B51F8043B40F8043B2B
:10479000103AEDD20C3205D351F8043B40F8043BFB
:1047A000043AF9D2043208D0D2071CBF11F8013BF9
:1047B00000F8013B01D30B8803806046704700BFBF
:1047C000082A13D38B078DD010F003038AD0C3F1CE
:1047D0000403D21ADB071CBF11F8013B00F8013BB0
:1047E00080D331F8023B20F8023B7BE7043AD9D36F
:1047F000013A11F8013B00F8013BF9D20B78037044
:104800004B7843708B78837060467047082802D1DC
:104810004FF48050704708B5FEF770FB1623036015
:104820004FF0FF3008BD00BF70B50F4B0F4DAB42CE
:10483000A3EB050607D0B610002455F8043B01345D
:104840009847A642F9D805F005FA094D094B5E1BB9
:10485000AB424FEAA60606D0002455F8043B0134CB
:104860009847A642F9D870BD2007002020070020F5
:104870002007002028070020704700BF704700BFB6
:1048800000207047024A0349034801F089B800BF7D
:10489000A8050020C1730010780000200C4B41686F
:1048A000994210B5044601D002F08AFDA168094B77
:1048B000994202D0204602F083FDE168064B9942FE
:1048C00004D02046BDE8104002F07ABD10BD00BF04
:1048D0000C7B0020747B0020DC7B002000207047D4
:1048E0002DE9F8432A4C2B49DFF8BC90DFF8BC8057
:1048F000294FC4F83811002504230822294604F161
:104900005C00264EE360C4E90055C4E90455A56087
:104910006566A561FEF7A0FA214B63670822294668
:1049200004F1C400C4E90749C4E90987C4E91A5578
:10493000C4E91E552567C4F8CC50C4F88050E6621F
:10494000FEF78AFA174BC4F8DC30294604F16803F5
:10495000082204F59670C4F88430C4E92298C4E9AA
:104960002476C4E93455C4E93855C4F8D850C4F89D
:104970003451C4F8E850FEF76FFA04F1D003C4E9EB
:104980003C98C4E93E76C4F8EC30BDE8F88300BF3B
:104990000C7B002085480010FD740010217500106C
:1049A000090001001200020095740010BD7400108F
:1049B000F8B5254BD3F838310646002B3CD0234FB1
:1049C000D7E90134013B04D51DE05A1C04F1680409
:1049D00019D0B4F90C50013B002DF6D11C4BE3600B
:1049E000C4E90155C4E9045565662560A56108223E
:1049F000294604F15C00FEF72FFAC4E90C55C4E91E
:104A000011552046F8BD3D680DB12F46D8E74FF44B
:104A1000D6713046FEF778FA044680B10423C0E927
:104A200000530C302946A0604FF4D0722546FEF7A3
:104A300013FA3C602F46C3E7FFF752FFBFE70C2392
:104A400038603360DDE700BF0C7B0020A805002044
:104A50000100FFFF436B03B17047044B044AD3F8D6
:104A600038314263002BF7D13AE700BF0C7B0020BE
:104A70009D480010704700BF704700BF024A0349BD
:104A8000002000F08DBF00BFA80500208148001065
:104A9000024A0349002000F083BF00BFA8050020A0
:104AA000DD48001070B504468AB008460D46FEF792
:104AB00067F9164E626B079001214318CDE9086132
:104AC000022006A903910695A16805930490A2B15E
:104AD000B1F90C204B6E900405D442F4005223F43B
:104AE00000538A814B669B040DD403AA204600F034
:104AF00017F840B90A200AB070BD20460191FFF7AF
:104B0000A9FF0199E4E74FF0FF30F4E7C0950010EA
:104B1000024B01461868FFF7C5BF00BF70000020B8
:104B20009368002B00F0F8802DE9F04FB1F90CC02C
:104B30001CF0080F83B0904681460C4631D00B69BB
:104B40007BB31CF00207D8F8006038D00027D4F8F7
:104B500024B0E169DFF8C4A23D4655452B463A46EC
:104B600028BF53464846C5B1D847002840F3CA80FD
:104B7000D8F808301B1A07442D1AC8F80830002B43
:104B800000F0B68055452B46D4F824B0E16928BF23
:104B900053463A464846002DE6D1D6E90075083618
:104BA000DBE72146484602F0A9FB002840F0AF8031
:104BB000B4F90CC0D8F800601CF00207C6D11CF094
:104BC000010A63D12368A168574618468B46002F17
:104BD00058D01CF4007F00F0B580B9420A4600F2BC
:104BE000E1801CF4906F2FD0216962695D1A02EB9D
:104BF000420202EBD2726B1C52103B44934292BFB2
:104C000093469B461A461CF4806F00F0EA801146DA
:104C10004846FEF779F9002800F0F9802A46216914
:104C20000090FFF759FDA289009B22F4906242F0A8
:104C30008002A2815819ABEB0505C4F814B02361BA
:104C4000A5602060BB463A465146009202F076FAD3
:104C5000A1682368009AA1EB0B011A443D46A160AC
:104C600022600027D8F808305B1BAA44C8F8083037
:104C7000002B3DD02368A168B4F90CC018468B46C0
:104C8000002FA6D1D6E900A708369EE73846BB46D6
:104C90003D460097002D41D0002846D0009A20685C
:104CA000A168D4E90473AA4228BF2A46B84204D9AD
:104CB00001EB030A524500F38580934275DCE169FC
:104CC000676A5A464846B847B0F1000A1ADD009BA9
:104CD000B3EB0A0300930FD00120D8F80830A3EB00
:104CE0000A03D344A5EB0A05C8F80830002BD1D13C
:104CF000002003B0BDE8F08F2146484602F0E4F9F9
:104D00000028EAD0B4F90C3043F04003A3814FF0FF
:104D1000FF3003B0BDE8F08F002070477568334660
:104D20000836002DFAD0D3F800B02A460A2158469A
:104D300002F0BEF8002867D00130A0EB0B0300930F
:104D40001A46ACE722699A4214D36269BA4211D872
:104D50006FF00043BB4228BF3B46656A93FBF2F30A
:104D6000E16902FB03F348465246A847051EC9DD28
:104D70007F1B77E7B94228BF39460D4618460A46D9
:104D8000514602F0DBF9A1682368491B2B44A1605E
:104D900023600029ECD12146484602F095F900280D
:104DA000E6D0AFE7BB463A464EE75946019202F0DD
:104DB000C5F9019AA3689B1AA36023681344236072
:104DC000924684E75946524602F0B8F923685344A4
:104DD00023602146484602F077F900283FF477AF78
:104DE00090E7484602F0D2FB034600287FF422AF4A
:104DF00021694846FFF764FBB4F90C300C22C9F86E
:104E0000002023F080037FE76A1C009247E70C2212
:104E1000B4F90C30C9F8002076E700BF00FCFF7F32
:104E2000002301461A46184602F07EBB0EB400B5B8
:104E300082B003AB816853F8042B019300F0DCFDD2
:104E400002B05DF804EB03B0704700BF0FB400B5CB
:104E5000074983B004AB086853F8042B81680193B9
:104E600000F0CAFD03B05DF804EB04B0704700BF6A
:104E70007000002038B5074D0022044608462A601D
:104E8000FBF7E6FC431C00D038BD2B68002BFBD0A1
:104E9000236038BD4C7C002038B5074D074C2C1BD7
:104EA000A41005D0013C55F8043D9847002CF9D1D9
:104EB000BDE8384004F0D4BE2C07002028070020AD
:104EC00000B50B4C25681446EE681A4685B00346BB
:104ED0000D464CB107490095CDE90114304606490D
:104EE00002F0F8F902F0AAF904490C46F3E700BF12
:104EF000700000204C9800105C980010589600102C
:104F000008B513460022FFF7DBFF00BF436C70B506
:104F100005460C464BB153F8240080B1026843F8B3
:104F200024200023C0E9033370BD2122042102F0B4
:104F30008DF9034668640028EDD1002070BD012181
:104F400001FA04F6721D9200284602F07FF900284B
:104F5000F3D0C0E90146E4E731B1436C4A6853F845
:104F60002200086043F82210704700BF2DE9F0418D
:104F70000D6907460E461C4601F1140E0020DEF8AE
:104F800000108BB202FB03434FEA134C090C02FBE7
:104F900001CC01309BB203EB0C4385424EF8043B3D
:104FA0004FEA1C44EBDC3CB1B368AB4207DD06EBD7
:104FB000850301355C6135613046BDE8F08171687B
:104FC00038460131FFF7A2FF8046A8B132690232AC
:104FD00006F10C0192000C30FFF77EFB7B6C7268CF
:104FE00053F82210316043F82260464606EB8503F1
:104FF00001355C613561DFE7024B03484246BA2167
:10500000FFF75EFF0C9800108C9800102DE9F84314
:105010001746284A1E4608330C46092E82FB031207
:105020004FEAE3730546C3EB62033ADD4FF0010C30
:1050300000214FEA4C0C634501F10101F9DC2846DF
:10504000FFF764FF014670B3089B4361092F4FF0DF
:105050000103036112DC0A340927BE420BDDF61B93
:10506000264414F8013B0A22303B2846FFF77EFF16
:10507000B4420146F5D10846BDE8F88304F10908B9
:1050800004EB0709444614F8013B0A22303B28464A
:10509000FFF76CFF4C450146F5D1A7F108044444E5
:1050A000DBE70021CBE70A46034B0448D321FFF797
:1050B00007FF00BF398EE3380C9800108C98001061
:1050C000B0F5803F034636BF030400201020B3F143
:1050D000807F3CBF1B020830B3F1805F3CBF1B01E7
:1050E0000430B3F1804F03D3002B06DB013070474F
:1050F0009B0003D45B0003D420207047023070472C
:1051000003307047036813F00702014607D0DA073F
:105110001FD4980721D55B080B600120704798B217
:10512000A0B11046DAB20AB908301B0A1A0704BF48
:105130001B0904309A0704BF9B080230DA0703D426
:105140005B0800F1010006D00B6070471B0C1020BB
:10515000E8E700207047202070479B080B60022082
:10516000704700BF38B5436C04460D464BB15868D4
:10517000B0B102685A6000220123C0E903234561EF
:1051800038BD2122042102F061F803466064002842
:10519000EDD1094B0948002240F24511FFF790FE7E
:1051A0001C220121204602F051F80028F1D00122F2
:1051B0000223C0E90123DEE70C9800108C98001050
:1051C0002DE9F04FD1F810801569A84585B00E463D
:1051D000924605DB2A46534645468A4690461E4679
:1051E000DAF80830DAF8041005EB0804A342B8BF77
:1051F0000131FFF78BFE8446002800F08B8000F120
:10520000140707EB840E774505D23B46002243F88E
:10521000042B9E45FBD8143606EB88080AF11409C6
:10522000464509EB850566D2A5EB0A03153B23F03D
:1052300003030AF1150A043355452CBF9B464FF072
:10524000040BCDF808E00394AE46E24605E0090CF5
:105250002AD1B04507F104074AD956F8041B8DB28C
:10526000002DF4D0CC463C46002301965CF8040B9C
:10527000216886B28AB2000C05FB0622090C1A448A
:1052800005FB001101EB124192B242EA0142E645F0
:1052900044F8042B4FEA1143E8D8019E47F80B303D
:1052A00056F8041C090CD4D03B68002248461D4621
:1052B0003C469446028801FB02C202EB15429BB2B7
:1052C00043EA024344F8043B50F8043B25684FEAA4
:1052D000134CABB201FB0C3303EB124370454FEAA6
:1052E000134CE7D3B04547F80B3007F10407B4D8A7
:1052F000DDE902E4D446002C02DC05E0013C03D0E9
:105300005EF8043D002BF9D06046CCF8104005B0A3
:10531000BDE8F08F034B044862464FF4B171FFF7CC
:10532000CFFD00BF0C9800108C98001012F0030302
:105330002DE9F041144607462CD10D46A4101CD08F
:105340003E6C86B3E3074FF0000806D4641014D017
:105350003068A8B10646E307F8D5324629463846F4
:10536000FFF72EFF35B17B6C696853F821202A6066
:1053700043F8215064100546EAD12846BDE8F08183
:10538000324631463846FFF71BFF3060C0F80080D8
:105390000646E0E7013B0F4A52F823200023FFF7BF
:1053A000E5FD0546CAE701213846FFF7AFFD064691
:1053B00040B1012340F27122C0E904320023386475
:1053C0000360BFE7044B0548324640F24511FFF742
:1053D00077FD00BFE89900100C9800108C98001021
:1053E0002DE9F0470C4690462769A368496807EB0A
:1053F00062177D1C9D4206464FEA621904DD5B0080
:105400009D4201F10101FADC3046FFF77FFD844641
:10541000002851D0B9F1000F00F114000EDD09F1A0
:1054200005024FEA820E03460CEB8202002143F88C
:10543000041B9342FBD1AEF114031844216904F11B
:10544000140318F01F0803EB81012DD0C8F12009C7
:1054500086464FF0000A1A6802FA08F242EA0A0287
:105460004EF8042B53F8042B994222FA09FAF2D889
:105470000B1B153B23F00303043304F11502914287
:1054800038BF042340F803A0BAF1000F00D13D4615
:10549000736C6268CCF8105053F82210216060469B
:1054A00043F82240BDE8F087043853F8042B40F855
:1054B000042F9942F9D8EAE7034B044862464FF4B7
:1054C000EF71FFF7FDFC00BF0C9800108C980010E6
:1054D0000B6984460069C01A16D10CF1140C143102
:1054E0000CEB830210B401EB830301E0944508D276
:1054F00052F8044D53F8041D8C42F7D005D24FF0FA
:10550000FF305DF8044B7047704701205DF8044B95
:10551000704700BF2DE9F04F15460A692B69D21A72
:10552000002A83B0884640F0878001F1140605F117
:10553000140101EB830106EB830301E09E427ED25E
:1055400053F8044D51F8042D9442F7D075D32B46EF
:105550000024454698466968FFF7D8FC8146002834
:1055600000F089802E69C460D8F8100005F1140B92
:1055700008F1140E09F1140A05F110020EEB800077
:105580000BEB860157464FF0000CCDF804B05EF8E7
:10559000044B52F8045F1FFA84FBABB2A3EB0B037E
:1055A000240C6344C4EB154404EB23449BB243EA4C
:1055B0000443704547F8043B4FEA244CE7D8A0EB7E
:1055C000080208F115084045A2F1150234BF002079
:1055D000012092080028DDF804B002F101044FEA2E
:1055E000840408BF04240BEB0405A942544433D9B6
:1055F0002746284650F8043B1CFA83FE1A0C6344E5
:1056000002EB2E429BB243EA0243814247F8043B3D
:105610004FEA224CEED80139491B21F003010C441A
:1056200023B954F8043D013E002BFAD04846C9F88E
:10563000106003B0BDE8F08F89DA01248BE7002108
:10564000FFF764FC814678B101220023C0E90423FE
:10565000484603B0BDE8F08F00284FEA820208BF39
:1056600000220AEB0204DBE7064B07484A4640F2F9
:105670003721FFF725FC034B03484A4640F24521FA
:10568000FFF71EFC0C9800108C980010114B0B407B
:10569000A3F15073002B03DD00221946104670471A
:1056A0005B42B3F1A07F4FEA235206DA4FF40023A6
:1056B00013410022194610467047A2F114031E2B15
:1056C000DABF4FF00042DA400122002319461046AB
:1056D000704700BF0000F07F02692DE9F04100F142
:1056E000140707EB8202A2F1040852F8046C30465A
:1056F000FFF7E6FCC0F120030A280B6033DD4745C5
:10570000A0F10B0119D252F8083C21B3C1F12000DD
:105710008E4023FA00F426438B40A2F1080146F0A4
:105720007F558F4245F4401519D252F80C2CC240D7
:10573000134318462946BDE8F0810B280AD006FA23
:1057400001F141F07F5545F44015002318462946E4
:10575000BDE8F081002346F07F5545F4401518461A
:105760002946BDE8F081474538BF52F8082CC0F102
:105770000B0326FA03F138BFDA4000F1150341F0BC
:105780007F5528BF002206FA03F345F44015134362
:1057900018462946BDE8F081F0B5012183B01646D0
:1057A0001F46FFF7B3FB0546002847D0C7F30A544E
:1057B000C7F313030CB143F48013002E019314D1EB
:1057C00001A8FFF79FFC019B6B61012220302A6139
:1057D00014B3089BA4F2334404441C60099BC0F139
:1057E00035001860284603B0F0BD68460096FFF704
:1057F00089FC019B00B30099C0F1200203FA02F278
:10580000C34001930A43002BC5E905230CBF0122C5
:1058100002222A61002CDCD105EB8201A0F2324386
:10582000086908990B60FFF74BFC099BC0EB42101D
:105830001860284603B0F0BD009AE4E7034B044823
:105840002A4640F20F31FFF73BFB00BF0C980010D7
:105850008C9800102DE9F04383B088466946814654
:10586000FFF73AFF04460D46404601A9FFF734FF13
:10587000D9F81030D8F81020A3EB020CDDE9003283
:105880009B1A03EB4C13002B0BDD05EB03573D4636
:1058900002460B462046294603F026FB03B0BDE82E
:1058A000F083C3EB033301EB03594946F0E700BF34
:1058B000172870B506460ADD0849094D0020002466
:1058C00022462B4603F0E6F9013EF9D170BD054BA7
:1058D00003EBC003D3E9040170BD00BF0000F03F3B
:1058E00000002440E89900100139491101F1010C30
:1058F000116902F1140303EB81018B4200EB8C0C64
:1059000016D210B5A0F1040E53F8044B4EF8044F14
:105910009942F9D88B1A153B23F00303043318443A
:10592000844504D9002340F8043B8445FBD810BDCE
:10593000844505D9002340F8043B8445FBD87047D3
:10594000704700BF03694A11934200F1140009DA5D
:1059500000EB830302E053F8042DAAB98342FAD87E
:105960000020704700EB8203F8DD11F01F01F5D035
:1059700010B450F8224024FA01F28A40944209D02F
:1059800001205DF8044B70470120704753F8042D47
:10599000002AF5D18342F9D800205DF8044B704706
:1059A0002DE9F8430746884616464FF00009D6E928
:1059B0000154013D10D4A389012B08D9B4F90E304C
:1059C00001332146384602D0C04749EA0009013D6B
:1059D0006B1C04F16804EED13668002EE7D148460E
:1059E000BDE8F883F030704700487047A4060020F7
:1059F00000487047A40600202DE9F04FC3B01C46B4
:105A0000089191460D9305460C90FFF7EDFF036852
:105A100014931846FDF7B4F913901DB16B6B002B6E
:105A200001F023800899B1F90C204B6E900405D445
:105A300042F4005223F400538A814B669F0401F123
:105A40004281089AB2F90C301E0740F1DD801269DC
:105A5000002A00F0D98003F01A030A2B00F0E3803B
:105A60009FED817B0023CDE92633CDE915338DED04
:105A7000107B32AA1293259292460A93CB469BF84A
:105A80000030002B00F064815C4604E014F8013F14
:105A9000002B00F04181252BF8D1B4EB0B0540F031
:105AA0003E812378002B00F053814FF000038DF8E6
:105AB000773000276378099704F1010B4FF0FF3925
:105AC0000BF1010B9846A8F12003582B00F24D81F1
:105AD000DFE813F083024B014B017E024B014B01C7
